:020000040800F2
:100000000028002041170008651500086B1500083E
:1000100071150008771500087D1500080000000024
:100020000000000000000000000000008315000830
:100030008F150008000000009B150008A715000898
:100040008917000889170008891700088917000810
:100050008917000889170008891700088917000800
:1000600089170008891700088917000889170008F0
:1000700089170008891700088917000889170008E0
:1000800089170008891700088917000889170008D0
:1000900089170008891700088917000889170008C0
:1000A00089170008891700088917000889170008B0
:1000B0008917000889170008000000008917000848
:1000C00089170008000000000000000089170008E0
:1000D00000000000891700088917000800000000D0
:1000E0008917000889170008891700080000000018
:1000F0000000000000000000000000000000000000
:0C01000000000000000000005FF808F1A3
:1001100010B5054C237833B9044B13B10448AFF341
:1001200000800123237010BDDC01002000000000CE
:10013000285B000808B5034B1BB103490348AFF324
:10014000008008BD00000000E0010020285B0008DE
:10015000034613F8012B002AFBD1181A0138704707
:1001600081F0004102E000BF83F0004330B54FEA68
:1001700041044FEA430594EA050F08BF90EA020FD5
:100180001FBF54EA000C55EA020C7FEA645C7FEA68
:10019000655C00F0E2804FEA5454D4EB5555B8BF8B
:1001A0006D420CDD2C4480EA020281EA030382EAFC
:1001B000000083EA010180EA020281EA0303362D8E
:1001C00088BF30BD11F0004F4FEA01314FF4801C61
:1001D0004CEA113102D0404261EB410113F0004F73
:1001E0004FEA03334CEA133302D0524263EB43032A
:1001F00094EA050F00F0A780A4F10104D5F1200EC8
:100200000DDB02FA0EFC22FA05F2801841F1000122
:1002100003FA0EF2801843FA05F359410EE0A5F1F6
:1002200020050EF1200E012A03FA0EFC28BF4CF027
:10023000020C43FA05F3C01851EBE37101F00045DD
:1002400007D54FF0000EDCF1000C7EEB00006EEBEA
:100250000101B1F5801F1BD3B1F5001F0CD3490874
:100260005FEA30004FEA3C0C04F101044FEA4452CB
:1002700012F5800F80F09A80BCF1004F08BF5FEA52
:10028000500C50F1000041EB045141EA050130BD32
:100290005FEA4C0C404141EB0101013C28BFB1F544
:1002A000801FE9D291F0000F04BF01460020B1FA8F
:1002B00081F308BF2033A3F10B03B3F120020CDA62
:1002C0000C3208DD02F1140CC2F10C0201FA0CF040
:1002D00021FA02F10CE002F11402D8BFC2F1200CA5
:1002E00001FA02F120FA0CFCDCBF41EA0C0190405B
:1002F000E41AA2BF01EB0451294330BD6FEA0404A4
:100300001F3C1CDA0C340EDC04F11404C4F120028E
:1003100020FA04F001FA02F340EA030021FA04F3A0
:1003200045EA030130BDC4F10C04C4F1200220FAF7
:1003300002F001FA04F340EA0300294630BD21FA35
:1003400004F0294630BD94F0000F83F4801306BFFB
:1003500081F480110134013D4EE77FEA645C18BFEF
:100360007FEA655C29D094EA050F08BF90EA020F86
:1003700005D054EA000C04BF1946104630BD91EA7E
:10038000030F1EBF0021002030BD5FEA545C05D181
:100390004000494128BF41F0004130BD14F58004C0
:1003A0003CBF01F5801130BD01F0004545F0FE4134
:1003B00041F470014FF0000030BD7FEA645C1ABF69
:1003C000194610467FEA655C1CBF0B46024650EAA0
:1003D000013406BF52EA033591EA030F41F40021CC
:1003E00030BD00BF90F0000F04BF0021704730B552
:1003F0004FF4806404F132044FF000054FF0000127
:1004000050E700BF90F0000F04BF0021704730B5E7
:100410004FF4806404F1320410F0004548BF4042BC
:100420004FF000013EE700BF42004FEAE2014FEA11
:1004300031014FEA02701FBF12F07F4393F07F4FEC
:1004400081F06051704732F07F4208BF704793F0EF
:100450007F4F04BF41F40021704730B54FF4607402
:1004600001F0004521F000411CE700BF50EA010205
:1004700008BF704730B54FF000050AE050EA0102AE
:1004800008BF704730B511F0004502D5404261EB1E
:1004900041014FF4806404F132045FEA915C3FF45F
:1004A000D8AE4FF003025FEADC0C18BF03325FEAFC
:1004B000DC0C18BF033202EBDC02C2F1200300FAAD
:1004C00003FC20FA02F001FA03FE40EA0E0021FAD2
:1004D00002F11444BDE600BF70B54FF0FF0C4CF4C0
:1004E000E06C1CEA11541DBF1CEA135594EA0C0F72
:1004F00095EA0C0F00F0DEF82C4481EA030621EAAD
:100500004C5123EA4C5350EA013518BF52EA0335E7
:1005100041F4801143F4801338D0A0FB02CE4FF099
:100520000005E1FB02E506F00042E0FB03E54FF0C9
:100530000006E1FB03569CF0000F18BF4EF0010EC1
:10054000A4F1FF04B6F5007F64F5407404D25FEABD
:100550004E0E6D4146EB060642EAC62141EA555170
:100560004FEAC52040EA5E504FEACE2EB4F1FD0CB2
:1005700088BFBCF5E06F1ED8BEF1004F08BF5FEA30
:10058000500E50F1000041EB045170BD06F00046E2
:1005900046EA010140EA020081EA0301B4EB5C048F
:1005A000C2BFD4EB0C0541EA045170BD41F4801187
:1005B0004FF0000E013C00F3AB8014F1360FDEBFAC
:1005C000002001F0004170BDC4F10004203C35DA88
:1005D0000C341BDC04F11404C4F1200500FA05F30B
:1005E00020FA04F001FA05F240EA020001F00042AC
:1005F00021F0004110EBD37021FA04F642EB060122
:100600005EEA430E08BF20EAD37070BDC4F10C044B
:10061000C4F1200500FA04F320FA05F001FA04F20F
:1006200040EA020001F0004110EBD37041F10001FB
:100630005EEA430E08BF20EAD37070BDC4F1200506
:1006400000FA05F24EEA020E20FA04F301FA05F26E
:1006500043EA020321FA04F001F0004121FA04F216
:1006600020EA020000EBD3705EEA430E08BF20EAE6
:10067000D37070BD94F0000F0FD101F00046400020
:1006800041EB010111F4801F08BF013CF7D041EAA2
:10069000060195F0000F18BF704703F000465200A6
:1006A00043EB030313F4801F08BF013DF7D043EA77
:1006B0000603704794EA0C0F0CEA135518BF95EA2D
:1006C0000C0F0CD050EA410618BF52EA4306D1D1B4
:1006D00081EA030101F000414FF0000070BD50EAD3
:1006E000410606BF1046194652EA430619D094EA5D
:1006F0000C0F02D150EA013613D195EA0C0F05D147
:1007000052EA03361CBF104619460AD181EA03019A
:1007100001F0004141F0FE4141F470014FF0000052
:1007200070BD41F0FE4141F4780170BD70B54FF0ED
:10073000FF0C4CF4E06C1CEA11541DBF1CEA13556D
:1007400094EA0C0F95EA0C0F00F0A7F8A4EB05044F
:1007500081EA030E52EA03354FEA013100F0888046
:100760004FEA03334FF0805545EA131343EA12630F
:100770004FEA022245EA111545EA10654FEA0026C4
:100780000EF000419D4208BF964244F1FD0404F57D
:10079000407402D25B084FEA3202B61A65EB0305D9
:1007A0005B084FEA32024FF480104FF4002CB6EB96
:1007B000020E75EB030E22BFB61A754640EA0C0016
:1007C0005B084FEA3202B6EB020E75EB030E22BF56
:1007D000B61A754640EA5C005B084FEA3202B6EB97
:1007E000020E75EB030E22BFB61A754640EA9C0056
:1007F0005B084FEA3202B6EB020E75EB030E22BF26
:10080000B61A754640EADC0055EA060E18D04FEAE3
:10081000051545EA16754FEA06164FEAC30343EA83
:1008200052734FEAC2025FEA1C1CC0D111F4801F50
:100830000BD141EA00014FF000004FF0004CB6E749
:1008400011F4801F04BF01430020B4F1FD0C88BFE8
:10085000BCF5E06F3FF6AFAEB5EB030C04BFB6EBF3
:10086000020C5FEA500C50F1000041EB045170BDE6
:100870000EF0004E4EEA113114EB5C04C2BFD4EB13
:100880000C0541EA045170BD41F480114FF0000E97
:10089000013C90E645EA060E8DE60CEA135594EA13
:1008A0000C0F08BF95EA0C0F3FF43BAF94EA0C0F16
:1008B0000AD150EA01347FF434AF95EA0C0F7FF48B
:1008C00025AF104619462CE795EA0C0F06D152EADF
:1008D00003353FF4FDAE1046194622E750EA4106C3
:1008E00018BF52EA43067FF4C5AE50EA41047FF4D4
:1008F0000DAF52EA43057FF4EBAE12E74FF0FF3C39
:1009000006E000BF4FF0010C02E000BF4FF0010C09
:100910004DF804CD4FEA410C7FEA6C5C4FEA430C82
:1009200018BF7FEA6C5C1BD001B050EA410C0CBFD1
:1009300052EA430C91EA030F02BF90EA020F002033
:10094000704710F1000F91EA030F58BF994208BF9A
:1009500090422CBFD8176FEAE37040F00100704757
:100960004FEA410C7FEA6C5C02D150EA013C07D1AE
:100970004FEA430C7FEA6C5CD6D152EA033CD3D0F9
:100980005DF8040B704700BF8446104662468C46F3
:100990001946634600E000BF01B5FFF7B7FF002826
:1009A00048BF10F1000F01BD4DF808EDFFF7F4FF4F
:1009B0000CBF012000205DF808FB00BF4DF808EDDA
:1009C000FFF7EAFF34BF012000205DF808FB00BFFD
:1009D0004DF808EDFFF7E0FF94BF012000205DF81F
:1009E00008FB00BF4DF808EDFFF7CEFF94BF0120D4
:1009F00000205DF808FB00BF4DF808EDFFF7C4FFCD
:100A000034BF012000205DF808FB00BF4FEA410C15
:100A10007FEA6C5C02D150EA013C0AD14FEA430CF8
:100A20007FEA6C5C02D152EA033C02D14FF0000035
:100A300070474FF0010070474FEA410212F5001273
:100A400015D211D56FF47873B3EB625212D94FEA15
:100A5000C12343F0004343EA505311F0004F23FAFF
:100A600002F018BF404270474FF00000704750EA54
:100A7000013005D111F0004008BF6FF00040704711
:100A80004FF00000704700BF80F0004002E000BF60
:100A900081F0004142001FBF5FEA410392EA030F69
:100AA0007FEA226C7FEA236C6AD04FEA1262D2EBB3
:100AB0001363C1BFD218414048404140B8BF5B42B8
:100AC000192B88BF704710F0004F40F4000020F051
:100AD0007F4018BF404211F0004F41F4000121F067
:100AE0007F4118BF494292EA030F3FD0A2F10102B1
:100AF00041FA03FC10EB0C00C3F1200301FA03F1EF
:100B000000F0004302D5494260EB4000B0F5000F11
:100B100013D3B0F1807F06D340084FEA310102F1D0
:100B20000102FE2A51D2B1F1004F40EBC25008BF82
:100B300020F0010040EA03007047490040EB00004C
:100B4000013A28BFB0F5000FEDD2B0FA80FCACF14D
:100B5000080CB2EB0C0200FA0CF0AABF00EBC2507A
:100B600052421843BCBFD0401843704792F0000F68
:100B700081F4000106BF80F400000132013BB5E7BB
:100B80004FEA41037FEA226C18BF7FEA236C21D031
:100B900092EA030F04D092F0000F08BF0846704796
:100BA00090EA010F1CBF0020704712F07F4F04D164
:100BB000400028BF40F00040704712F100723CBF77
:100BC00000F50000704700F0004343F0FE4040F4A1
:100BD000000070477FEA226216BF08467FEA23635F
:100BE0000146420206BF5FEA412390EA010F40F44A
:100BF000800070474FF0000304E000BF10F0004396
:100C000048BF40425FEA000C08BF704743F096437C
:100C100001464FF000001CE050EA010208BF704797
:100C20004FF000030AE000BF50EA010208BF70471E
:100C300011F0004302D5404261EB41015FEA010C33
:100C400002BF84460146002043F0B64308BFA3F12B
:100C50008053A3F50003BCFA8CF2083AA3EBC2530D
:100C600010DB01FA02FC634400FA02FCC2F120022C
:100C7000BCF1004F20FA02F243EB020008BF20F063
:100C80000100704702F1200201FA02FCC2F12002C9
:100C900050EA4C0021FA02F243EB020008BF20EABE
:100CA000DC7070474FF0FF0C1CEAD0521EBF1CEAEC
:100CB000D15392EA0C0F93EA0C0F6FD01A4480EADA
:100CC000010C400218BF5FEA41211ED04FF00063C3
:100CD00043EA501043EA5111A0FB01310CF00040EF
:100CE000B1F5000F3EBF490041EAD3715B0040EA15
:100CF000010062F17F02FD2A1DD8B3F1004F40EBE5
:100D0000C25008BF20F00100704790F0000F0CF0B7
:100D1000004C08BF49024CEA502040EA51207F3A7B
:100D2000C2BFD2F1FF0340EAC250704740F4000056
:100D30004FF00003013A5DDC12F1190FDCBF00F047
:100D400000407047C2F10002410021FA02F1C2F1F5
:100D5000200200FA02FC5FEA310040F1000053EA91
:100D60004C0308BF20EADC70704792F0000F00F0DF
:100D7000004C02BF400010F4000F013AF9D040EAE5
:100D80000C0093F0000F01F0004C02BF490011F479
:100D9000000F013BF9D041EA0C018FE70CEAD15377
:100DA00092EA0C0F18BF93EA0C0F0AD030F0004CF7
:100DB00018BF31F0004CD8D180EA010000F00040AB
:100DC000704790F0000F17BF90F0004F084691F069
:100DD000000F91F0004F14D092EA0C0F01D14202A3
:100DE0000FD193EA0C0F03D14B0218BF084608D16C
:100DF00080EA010000F0004040F0FE4040F40000B6
:100E0000704740F0FE4040F4400070474FF0FF0C48
:100E10001CEAD0521EBF1CEAD15392EA0C0F93EA8F
:100E20000C0F69D0A2EB030280EA010C49024FEAE1
:100E3000402037D04FF0805343EA111143EA10139A
:100E40000CF000408B4238BF5B0042F17D024FF452
:100E5000000C8B4224BF5B1A40EA0C00B3EB510F2D
:100E600024BFA3EB510340EA5C00B3EB910F24BF16
:100E7000A3EB910340EA9C00B3EBD10F24BFA3EB9B
:100E8000D10340EADC001B0118BF5FEA1C1CE0D163
:100E9000FD2A3FF650AF8B4240EBC25008BF20F016
:100EA000010070470CF0004C4CEA50207F32C2BF6A
:100EB000D2F1FF0340EAC250704740F400004FF007
:100EC0000003013A37E792F0000F00F0004C02BF38
:100ED000400010F4000F013AF9D040EA0C0093F002
:100EE000000F01F0004C02BF490011F4000F013B5C
:100EF000F9D041EA0C0195E70CEAD15392EA0C0FC4
:100F000008D142027FF47DAF93EA0C0F7FF470AFFB
:100F1000084676E793EA0C0F04D14B023FF44CAF3E
:100F200008466EE730F0004C18BF31F0004CCAD1D3
:100F300030F000427FF45CAF31F000437FF43CAF0F
:100F40005FE700BFB0B58AB000AFF860B9607A6003
:100F50003B6097F8443087F82630B7F84030BB84C0
:100F6000FB6B3B623B8FBB833B68BB617B687B61F8
:100F7000BB683B6107F11003184600F00EF8FB68F0
:100F80001D4607F110040FCC0FC594E8030085E857
:100F90000300F8682837BD46B0BD80B582B000AF09
:100FA00078607B689B7D002B0CD13321786800F042
:100FB0007FF83221786800F07BF82821786800F00B
:100FC00077F803E03821786800F072F8012178683A
:100FD00000F06EF80C21786800F06AF80621786855
:100FE00000F066F800BF0837BD4680BD80B586B00A
:100FF00000AF786039603868FFF716FA02460B4692
:1010000007F10C00064902F015FB07F10C03194625
:10101000786800F007F800BF1837BD4680BD00BFF4
:10102000445B000890B585B000AF7860396000235C
:10103000FB730AE0FB7B3A6813441B781946786817
:1010400000F064F8FB7B0133FB73FC7B3868FFF72F
:101050007FF803469C42EDD300BF00BF1437BD4666
:1010600090BD000080B582B000AF78600B46FB7089
:101070001346BB70FB78074AD25CBB781344DBB2E3
:10108000803BDBB21946786800F012F800BF0837E1
:10109000BD4680BD745B000880B582B000AF78604B
:1010A0000121786800F004F800BF0837BD4680BD14
:1010B00080B582B000AF78600B46FB707B689868A3
:1010C0007B689B890022194601F06CF97B689B7D47
:1010D000002B11D1FB781B09DBB20422194678687A
:1010E00000F042F8FB7803F00F03DBB2042219464C
:1010F000786800F039F805E0FB780822194678682E
:1011000000F032F800BF0837BD4680BD80B582B020
:1011100000AF78600B46FB707B6898687B689B89A2
:101120000122194601F03EF97B689B7D002B11D10D
:10113000FB781B09DBB204221946786800F014F82A
:10114000FB7803F00F03DBB204221946786800F045
:101150000BF805E0FB7808221946786800F004F8DF
:1011600000BF0837BD4680BD80B584B000AF786051
:101170000B46FB701346BB700023FB7319E07B68C2
:101180001A68FB7B9B00134418687B685A68FB7BDA
:101190005B0013441988FA78FB7B42FA03F3DBB255
:1011A00003F00103DBB21A4601F0FCF8FB7B0133CC
:1011B000FB73FA7BBB789A42E1D37B6818697B6842
:1011C0009B8A0122194601F0EDF8012000F040FB56
:1011D0007B6818697B689B8A0022194601F0E2F857
:1011E00000BF1037BD4680BD90B597B004AF00F08A
:1011F000CDFA00F07DF800F00DF900F0CDF8324B9B
:1012000007F124040FCB84E80F00304A07F11C03D8
:1012100092E8030083E80300381D07F11C0207F180
:101220002401002303934FF400730293284B01938E
:101230004FF480730093264BFFF784FE254B7B64AD
:101240004FF000033B64244BFB63244BBB634FF024
:101250007E537B63224800F0F7FB214800F0A2FC9C
:101260000346204A13603B1D1846FFF715FF3B1D40
:10127000002200211846FFF7F5FE1A4B1B6818469E
:10128000FFF7B8FC0346796C1846FFF70BFD0346E1
:1012900015491846FFF7BAFD03467B631349F86BFF
:1012A000FFF700FD0346796B1846FFF7FBFC03468A
:1012B0001946B86BFFF7EEFB03463B643B1D396CE8
:1012C0001846FFF793FEC8E74C5B00085C5B00081C
:1012D0000008014066666640A2450E4000740D4657
:1012E000F80100202802002000F07F4500401C4645
:1012F00080B594B000AF07F12803282200211846DA
:1013000001F030FD07F1140300221A605A609A6060
:10131000DA601A613B1D00221A605A609A60DA6036
:101320000223BB620123BB631023FB6302237B64A4
:101330000023BB640023FB6407F12803184601F077
:1013400049F80346002B01D000F098F80F237B6189
:101350000223BB610023FB6100233B6200237B620D
:1013600007F114030021184601F0B6FA0346002BDA
:1013700001D000F083F802237B600023FB603B1D5B
:10138000184601F00FFC0346002B01D000F076F860
:1013900000BF5037BD4680BD80B584B000AF3B1D57
:1013A00000221A605A609A60184B194A1A60174B4B
:1013B00000229A60154B01221A73144B00221A75F1
:1013C000124B4FF46022DA61104B00225A600F4B2F
:1013D00001221A610D4800F05FFA0346002B01D08C
:1013E00000F04CF800237B600123BB600023FB600E
:1013F0003B1D1946054800F0E1FB0346002B01D0D8
:1014000000F03CF800BF1037BD4680BDF801002059
:101410000024014080B586B000AF07F10803002228
:101420001A605A609A60DA60124B9B69114A43F065
:10143000040393610F4B9B6903F004037B607B689B
:1014400000224FF45E710C4800F0ACFF4FF45E7365
:10145000BB600123FB6000233B6102237B6107F13A
:1014600008031946044800F021FE00BF1837BD46A6
:1014700080BD00BF001002400008014080B400AFF2
:1014800072B600BFFEE7000080B485B000AF154B18
:101490009B69144A43F001039361124B9B6903F06B
:1014A0000103BB60BB680F4BDB690E4A43F08053FE
:1014B000D3610C4BDB6903F080537B607B680A4B84
:1014C0005B68FB60FB6823F0E063FB60FB6843F054
:1014D0008063FB60044AFB68536000BF1437BD465D
:1014E00080BC7047001002400000014080B588B009
:1014F00000AF786007F1100300221A605A609A600A
:10150000DA607B681B68144A934221D1134B9B69B4
:10151000124A43F400739361104B9B6903F4007308
:10152000FB60FB680D4B9B690C4A43F0040393611D
:101530000A4B9B6903F00403BB60BB6801233B615A
:1015400003237B6107F110031946054800F0AEFD47
:1015500000BF2037BD4680BD00240140001002407E
:101560000008014080B400AFFEE780B400AFFEE7A2
:1015700080B400AFFEE780B400AFFEE780B400AFF8
:10158000FEE780B400AF00BFBD4680BC704780B4AA
:1015900000AF00BFBD4680BC704780B400AF00BF45
:1015A000BD4680BC704780B500AF00F035F900BF84
:1015B00080BD80B400AF01231846BD4680BC704793
:1015C00080B582B000AF7860396001F0A1FB0346BE
:1015D00016221A604FF0FF3318460837BD4680BD0B
:1015E00080B582B000AF78604FF0FF317868FFF7C8
:1015F000E7FFFEE780B586B000AFF860B9607A60BB
:1016000000237B610AE0AFF300800146BB685A1CEF
:10161000BA60CAB21A707B6901337B617A697B68F0
:101620009A42F0DB7B6818461837BD4680BD80B50E
:1016300086B000AFF860B9607A6000237B6109E092
:10164000BB685A1CBA601B781846AFF300807B69F0
:1016500001337B617A697B689A42F1DB7B681846CB
:101660001837BD4680BD80B483B000AF78604FF0BE
:10167000FF3318460C37BD4680BC704780B483B03A
:1016800000AF786039603B684FF400525A60002325
:1016900018460C37BD4680BC704780B483B000AF9D
:1016A0007860012318460C37BD4680BC704780B473
:1016B00085B000AFF860B9607A600023184614372F
:1016C000BD4680BC7047000080B586B000AF786032
:1016D000144A154BD31A7B617B693B61134B1B6822
:1016E000002B02D1114B124A1A60104B1A687B680A
:1016F00013443A699A4207D201F00AFB03460C22CE
:101700001A604FF0FF3309E0084B1B68FB60074B82
:101710001A687B681344054A1360FB68184618373B
:10172000BD4680BD00280020000400002C020020DF
:101730004802002080B400AF00BFBD4680BC7047A7
:101740000C480D490D4A002302E0D458C45004331C
:10175000C4188C42F9D30A4A0A4C002301E01360F2
:101760000432A242FBD3FFF7E5FF01F0D7FAFFF7FF
:101770003BFD704700000020DC0100206C5F00088A
:10178000DC01002044020020FEE7000080B500AF2D
:10179000084B1B68074A43F010031360032000F056
:1017A00051FC0F2000F008F8FFF76EFE00231846EA
:1017B00080BD00BF0020024080B582B000AF7860DD
:1017C000124B1A68124B1B7819464FF47A73B3FB0D
:1017D000F1F3B2FBF3F3184600F05BFC0346002B79
:1017E00001D001230EE07B680F2B0AD80022796814
:1017F0004FF0FF3000F031FC064A7B681360002395
:1018000000E0012318460837BD4680BD00000020D7
:10181000080000200400002080B400AF054B1B78B6
:101820001A46054B1B681344034A136000BFBD46AC
:1018300080BC7047080000203002002080B400AF58
:10184000024B1B681846BD4680BC70473002002022
:1018500080B584B000AF7860FFF7F0FFB8607B68B8
:10186000FB60FB68B3F1FF3F05D00A4B1B781A46BB
:10187000FB681344FB6000BFFFF7E0FF0246BB6854
:10188000D31AFA689A42F7D800BF00BF1037BD4696
:1018900080BD00BF0800002080B586B000AF786032
:1018A0000023FB7500233B610023BB600023FB602A
:1018B0007B68002B01D10123BEE07B689B68002B75
:1018C0007B689B6A002B09D17B680022DA627B6807
:1018D000002283F824207868FFF708FE786800F07B
:1018E000BFFA0346FB757B689B6A03F01003002B6D
:1018F00040F09980FB7D002B40F095807B689B6ACF
:1019000023F4885323F0020343F002027B689A62B7
:101910007B685A687B68DB691A437B681B7B5B00CA
:101920001343BA681343BB607B689B68B3F5807F41
:1019300003D07B689B68012B02D14FF4807300E0D9
:1019400000233A6913433B617B681B7D012B19D14E
:101950007B681B7B002B09D17B689B69013B5A0389
:101960003B69134343F400633B610BE07B689B6A74
:1019700043F020027B689A627B68DB6A43F00102D5
:101980007B68DA627B681B685B6823F469417B686B
:101990001B683A690A435A607B681B689A68284B3F
:1019A00013407A681268B9680B4393607B689B6840
:1019B000B3F5807F03D07B689B68012B04D17B68E3
:1019C0001B69013B1B05FB607B681B68DB6A23F41A
:1019D00070017B681B68FA680A43DA627B681B68DF
:1019E0009A68184B1340BA689A420BD17B68002260
:1019F000DA627B689B6A23F0030343F001027B6891
:101A00009A6218E07B689B6A23F0120343F010028D
:101A10007B689A627B68DB6A43F001027B68DA626A
:101A20000123FB7507E07B689B6A43F010027B682B
:101A30009A620123FB75FB7D18461837BD4680BDB1
:101A4000FDF7E1FFFE0E1FFF80B584B000AF7860A8
:101A50000023FB737B6893F82430012B01D1022310
:101A600098E07B68012283F82420786800F09EF9D2
:101A70000346FB73FB7B002B40F087807B689B6AEF
:101A800023F4407323F0010343F480727B689A626D
:101A90007B681B68414A934205D1414B5B6803F464
:101AA0007023002B15D17B689B6A23F480127B681E
:101AB0009A627B681B685B6803F48063002B26D006
:101AC0007B689B6A23F4405343F480527B689A629C
:101AD0001DE07B689B6A43F480127B689A627B6896
:101AE0001B682F4A934204D07B681B682B4A9342A1
:101AF0000DD12B4B5B6803F48063002B07D07B6810
:101B00009B6A23F4405343F480527B689A627B685B
:101B10009B6A03F48053002B06D07B68DB6A23F0BA
:101B200006027B68DA6202E07B680022DA627B6888
:101B3000002283F824207B681B686FF002021A6081
:101B40007B681B689B6803F46023B3F5602F13D197
:101B50007B681B68114A934205D1114B5B6803F403
:101B60007023002B08D17B681B689A687B681B6810
:101B700042F4A0029A600CE07B681B689A687B685C
:101B80001B6842F480129A6003E07B68002283F8AD
:101B90002420FB7B18461037BD4680BD002801403D
:101BA0000024014080B483B000AF78607B681B687C
:101BB000DB6C18460C37BD4680BC704780B485B0DE
:101BC00000AF786039600023FB730023BB607B6843
:101BD00093F82430012B01D10223DCE07B68012241
:101BE00083F824203B685B68062B1CD87B681B6845
:101BF000596B3B685A6813469B001344053B1F22F0
:101C000002FA03F3DB4319403B6818683B685A68E3
:101C100013469B001344053B00FA03F27B681B68E4
:101C20000A435A633CE03B685B680C2B1CD87B681A
:101C30001B68196B3B685A6813469B001344233B8F
:101C40001F2202FA03F3DB4319403B6818683B6824
:101C50005A6813469B001344233B00FA03F27B6847
:101C60001B680A431A631BE07B681B68D96A3B68E0
:101C70005A6813469B001344413B1F2202FA03F3A8
:101C8000DB4319403B6818683B685A6813469B0061
:101C90001344413B00FA03F27B681B680A43DA6293
:101CA0003B681B68092B1CD97B681B68D9683B689B
:101CB0001A6813465B0013441E3B072202FA03F323
:101CC000DB4319403B6898683B681A6813465B0021
:101CD00013441E3B00FA03F27B681B680A43DA6078
:101CE00019E07B681B6819693B681A6813465B003A
:101CF0001344072202FA03F3DB4319403B68986858
:101D00003B681A6813465B00134400FA03F27B68D1
:101D10001B680A431A613B681B68102B03D03B68A1
:101D20001B68112B32D17B681B681D4A934225D159
:101D30007B681B689B6803F40003002B26D17B683B
:101D40001B689A687B681B6842F400029A603B68D3
:101D50001B68102B1AD1134B1B68134AA2FB0323D9
:101D60009A0C13469B0013445B00BB6002E0BB6807
:101D7000013BBB60BB68002BF9D107E07B689B6A25
:101D800043F020027B689A620123FB737B68002288
:101D900083F82420FB7B18461437BD4680BC70476F
:101DA000002401400000002083DE1B4380B584B086
:101DB00000AF78600023FB600023BB607B681B687A
:101DC0009B6803F00103012B40D07B681B689A6875
:101DD0007B681B6842F001029A601F4B1B681F4A18
:101DE000A2FB03239B0CBB6002E0BB68013BBB6012
:101DF000BB68002BF9D1FFF721FDF8601FE0FFF76A
:101E00001DFD0246FB68D31A022B18D97B681B689C
:101E10009B6803F00103012B11D07B689B6A43F0A0
:101E200010027B689A627B68DB6A43F001027B6880
:101E3000DA627B68002283F82420012307E07B68B4
:101E40001B689B6803F00103012BD8D100231846BF
:101E50001037BD4680BD00BF0000002083DE1B435D
:101E600080B584B000AF78600023FB607B681B689E
:101E70009B6803F00103012B2ED17B681B689A68D5
:101E80007B681B6822F001029A60FFF7D7FCF860BC
:101E90001BE0FFF7D3FC0246FB68D31A022B14D9D0
:101EA0007B681B689B6803F00103012B0DD17B68E5
:101EB0009B6A43F010027B689A627B68DB6A43F09E
:101EC00001027B68DA62012307E07B681B689B687C
:101ED00003F00103012BDCD0002318461037BD4668
:101EE00080BD000080B485B000AF78607B6803F0EF
:101EF0000703FB600C4BDB68BB60BA684FF6FF035F
:101F00001340BB60FB681A02BB68134343F0BF6316
:101F100043F40033BB60044ABB68D36000BF14378E
:101F2000BD4680BC704700BF00ED00E080B400AF4C
:101F3000044BDB681B0A03F007031846BD4680BC50
:101F4000704700BF00ED00E080B483B000AF0346EF
:101F50003960FB7197F90730002B0ADB3B68DAB276
:101F60000C4997F907301201D2B20B4483F80023D1
:101F70000AE03B68DAB20849FB7903F00F03043B3F
:101F80001201D2B20B441A7600BF0C37BD4680BC9A
:101F9000704700BF00E100E000ED00E080B489B0D0
:101FA00000AFF860B9607A60FB6803F00703FB617B
:101FB000FB69C3F10703042B28BF0423BB61FB6942
:101FC0000433062B02D9FB69033B00E000237B614D
:101FD0004FF0FF32BB6902FA03F3DA43BB681A40E1
:101FE0007B699A404FF0FF317B6901FA03F3D943D3
:101FF0007B680B40134318462437BD4680BC7047AE
:1020000080B582B000AF78607B68013BB3F1807F20
:1020100001D301230FE00A4A7B68013B53600F2183
:102020004FF0FF30FFF790FF054B00229A60044B02
:1020300007221A60002318460837BD4680BD00BF3E
:1020400010E000E080B582B000AF78607868FFF7FC
:1020500049FF00BF0837BD4680BD80B586B000AFE0
:102060000346B9607A60FB7300237B61FFF75EFF74
:1020700078617A68B9687869FFF790FF024697F946
:102080000F3011461846FFF75FFF00BF1837BD46F7
:1020900080BD80B582B000AF78607868FFF7B0FF90
:1020A000034618460837BD4680BD000080B48BB09B
:1020B00000AF7860396000237B6200233B6261E1FE
:1020C00001227B6A02FA03F3FB613B681B68FA6931
:1020D0001340BB61BA69FB699A4240F050813B688A
:1020E0005B68974A93425ED0954A934275D8954A69
:1020F000934258D0934A93426FD8934A934252D016
:10210000914A934269D8914A93424CD08F4A934264
:1021100063D88F4A934246D08D4A93425DD8122BA2
:102120002AD8122B59D801A252F823F0A72100086F
:102130008121000893210008D5210008DB21000837
:10214000DB210008DB210008DB210008DB2100087F
:10215000DB210008DB210008DB210008DB2100086F
:10216000DB210008DB210008DB210008DB2100085F
:10217000892100089D210008764A934213D02CE063
:102180003B68DB683B6229E03B68DB6804333B6209
:1021900024E03B68DB6808333B621FE03B68DB6898
:1021A0000C333B621AE03B689B68002B02D104238E
:1021B0003B6213E03B689B68012B05D108233B621F
:1021C0007B68FA691A6109E008233B627B68FA6957
:1021D0005A6103E000233B6200E000BFBB69FF2BB4
:1021E00001D87B6801E07B6804337B61BB69FF2B0E
:1021F00002D87B6A9B0002E07B6A083B9B003B6144
:102200007B691A680F213B6901FA03F3DB431A402B
:10221000396A3B6901FA03F31A437B691A603B6828
:102220005B6803F08053002B00F0A9804A4B9B6948
:10223000494A43F001039361474B9B6903F0010353
:10224000BB60BB68454A7B6A9B08023352F8233067
:10225000FB607B6A03F003039B000F2202FA03F387
:10226000DB43FA681340FB607B683D4A93420DD024
:102270007B683C4A934207D07B683B4A934201D13A
:10228000022304E0032302E0012300E000237A6A32
:1022900002F0030292009340FA681343FB602F4957
:1022A0007B6A9B080233FA6841F823203B685B682D
:1022B00003F48033002B06D02C4B1A682B49BB69E2
:1022C00013430B6006E0294B1A68BB69DB432749BF
:1022D00013400B603B685B6803F40033002B06D0AF
:1022E000224B5A682149BB6913434B6006E01F4BE0
:1022F0005A68BB69DB431D4913404B603B685B6810
:1023000003F48013002B06D0184B9A681749BB6959
:1023100013438B6006E0154B9A68BB69DB43134996
:1023200013408B603B685B6803F40013002B1FD0E5
:102330000E4BDA680D49BB691343CB601FE000BF49
:1023400000003210000031100000221000002110A7
:1023500000001210000011100010024000000140A7
:1023600000080140000C0140001001400004014041
:102370000B4BDA68BB69DB4309491340CB607B6ACE
:1023800001337B623B681A687B6A22FA03F3002BF5
:102390007FF496AE00BF00BF2C37BD4680BC7047AF
:1023A0000004014080B483B000AF78600B467B80AE
:1023B00013467B707B78002B03D07A887B681A6188
:1023C00003E07B881A047B681A6100BF0C37BD46A6
:1023D00080BC704780B586B000AF78607B68002B0A
:1023E00001D1012372E27B681B6803F00103002B1B
:1023F00000F08780924B5B6803F00C03042B0CD039
:102400008F4B5B6803F00C03082B12D18C4B5B687D
:1024100003F48033B3F5803F0BD1894B1B6803F481
:102420000033002B6CD07B685B68002B68D10123E4
:102430004CE27B685B68B3F5803F06D1804B1B683C
:102440007F4A43F4803313602EE07B685B68002B87
:102450000CD17B4B1B687A4A23F480331360784B92
:102460001B68774A23F4802313601DE07B685B6858
:10247000B3F5A02F0CD1724B1B68714A43F4802333
:1024800013606F4B1B686E4A43F4803313600BE09C
:102490006B4B1B686A4A23F480331360684B1B68DC
:1024A000674A23F4802313607B685B68002B13D09A
:1024B000FFF7C4F9386108E0FFF7C0F902463B694D
:1024C000D31A642B01D9032300E25D4B1B6803F48C
:1024D0000033002BF0D014E0FFF7B0F9386108E0CA
:1024E000FFF7ACF902463B69D31A642B01D90323E9
:1024F000ECE1534B1B6803F40033002BF0D100E0F8
:1025000000BF7B681B6803F00203002B63D04C4BB9
:102510005B6803F00C03002B0BD0494B5B6803F0A6
:102520000C03082B1CD1464B5B6803F48033002B53
:1025300016D1434B1B6803F00203002B05D07B68C8
:102540001B69012B01D00123C0E13D4B1B6823F027
:10255000F8027B685B69DB00394913430B603AE0A2
:102560007B681B69002B20D0364B01221A60FFF7D5
:1025700065F9386108E0FFF761F902463B69D31A53
:10258000022B01D90323A1E12D4B1B6803F00203A9
:10259000002BF0D02A4B1B6823F0F8027B685B69A4
:1025A000DB00274913430B6015E0264B00221A601D
:1025B000FFF744F9386108E0FFF740F902463B694C
:1025C000D31A022B01D9032380E11D4B1B6803F0B2
:1025D0000203002BF0D17B681B6803F00803002B7B
:1025E0003AD07B689B69002B19D0174B01221A60E7
:1025F000FFF724F9386108E0FFF720F902463B694C
:10260000D31A022B01D9032360E10D4B5B6A03F05F
:102610000203002BF0D0012000F0A6FA1CE00A4BC8
:1026200000221A60FFF70AF938610FE0FFF706F998
:1026300002463B69D31A022B08D9032346E100BFA7
:10264000001002400000424280044242924B5B6A0A
:1026500003F00203002BE9D17B681B6803F004033D
:10266000002B00F0A6800023FB758B4BDB6903F089
:102670008053002B0DD1884BDB69874A43F0805390
:10268000D361854BDB6903F08053BB60BB680123DA
:10269000FB75824B1B6803F48073002B18D17F4BB2
:1026A0001B687E4A43F480731360FFF7C7F83861F4
:1026B00008E0FFF7C3F802463B69D31A642B01D93F
:1026C000032303E1754B1B6803F48073002BF0D0E8
:1026D0007B68DB68012B06D16F4B1B6A6E4A43F0A7
:1026E000010313622DE07B68DB68002B0CD16A4B81
:1026F0001B6A694A23F001031362674B1B6A664A2F
:1027000023F0040313621CE07B68DB68052B0CD10B
:10271000614B1B6A604A43F0040313625E4B1B6A01
:102720005D4A43F0010313620BE05B4B1B6A5A4A9C
:1027300023F001031362584B1B6A574A23F004032A
:1027400013627B68DB68002B15D0FFF777F83861E0
:102750000AE0FFF773F802463B69D31A41F2883268
:10276000934201D90323B1E04B4B1B6A03F00203F0
:10277000002BEED014E0FFF761F838610AE0FFF7B4
:102780005DF802463B69D31A41F28832934201D97F
:1027900003239BE0404B1B6A03F00203002BEED1A6
:1027A000FB7D012B05D13C4BDB693B4A23F0805379
:1027B000D3617B68DB69002B00F08780364B5B6858
:1027C00003F00C03082B61D07B68DB69022B46D138
:1027D000334B00221A60FFF731F8386108E0FFF749
:1027E0002DF802463B69D31A022B01D903236DE071
:1027F000294B1B6803F00073002BF0D17B681B6A28
:10280000B3F5803F08D1244B5B6823F400327B682A
:102810009B68214913434B601F4B5B6823F4741280
:102820007B68196A7B685B6A0B431B4913434B60E7
:102830001B4B01221A60FFF701F8386108E0FEF730
:10284000FDFF02463B69D31A022B01D903233DE069
:10285000114B1B6803F00073002BF0D035E0104BD8
:1028600000221A60FEF7EAFF386108E0FEF7E6FF93
:1028700002463B69D31A022B01D9032326E0064BFB
:102880001B6803F00073002BF0D11EE07B68DB694E
:10289000012B07D1012319E0001002400070004015
:1028A000600042420B4B5B68FB60FB6803F48032C4
:1028B0007B681B6A9A4206D1FB6803F470127B683E
:1028C0005B6A9A4201D0012300E0002318461837C2
:1028D000BD4680BD0010024080B584B000AF786076
:1028E00039607B68002B01D10123D0E06A4B1B6863
:1028F00003F007033A689A4210D9674B1B6823F02C
:10290000070265493B6813430B60634B1B6803F088
:1029100007033A689A4201D00123B8E07B681B683C
:1029200003F00203002B20D07B681B6803F0040334
:10293000002B05D0594B5B68584A43F4E063536061
:102940007B681B6803F00803002B05D0534B5B68C2
:10295000524A43F460535360504B5B6823F0F002DB
:102960007B689B684D4913434B607B681B6803F091
:102970000103002B40D07B685B68012B07D1474BDC
:102980001B6803F40033002B15D101237FE07B6823
:102990005B68022B07D1414B1B6803F00073002BCF
:1029A00009D1012373E03D4B1B6803F00203002BA8
:1029B00001D101236BE0394B5B6823F003027B6894
:1029C0005B68364913434B60FEF738FFF8600AE056
:1029D000FEF734FF0246FB68D31A41F28832934275
:1029E00001D9032353E02D4B5B6803F00C027B6895
:1029F0005B689B009A42EBD1274B1B6803F00703EF
:102A00003A689A4210D2244B1B6823F007022249ED
:102A10003B6813430B60204B1B6803F007033A68C5
:102A20009A4201D0012332E07B681B6803F0040363
:102A3000002B08D0194B5B6823F4E0627B68DB68ED
:102A4000164913434B607B681B6803F00803002B97
:102A500009D0124B5B6823F460527B681B69DB0072
:102A60000E4913434B6000F021F802460B4B5B68A4
:102A70001B0903F00F030A49CB5C22FA03F3094A4E
:102A80001360094B1B681846FEF796FE0023184694
:102A90001037BD4680BD00BF00200240001002403C
:102AA000785B0008000000200400002090B48AB089
:102AB00000AF294B3C1D0FCB84E80F0040F20123EF
:102AC0003B800023FB610023BB6100237B6200236A
:102AD0007B6100233B62214B5B68FB61FB6903F078
:102AE0000C03042B02D0082B03D02BE01C4B3B62C1
:102AF0002BE0FB699B0C03F00F0328333B4413F8D6
:102B0000243C7B61FB6903F48033002B12D0134B10
:102B10005B685B0C03F0010328333B4413F8283C4B
:102B2000BB617B690E4A03FB02F2BB69B2FBF3F3A4
:102B30007B6204E07B690B4A02FB03F37B627B6AE6
:102B40003B6202E0064B3B6200BF3B6A18462837F7
:102B5000BD4690BC704700BF645B00080010024097
:102B600000127A0000093D0080B485B000AF7860A3
:102B70000A4B1B680A4AA2FB03235B0A7A6802FB22
:102B800003F3FB6000BFFB685A1EFA60002BF9D10B
:102B900000BF00BF1437BD4680BC70470000002056
:102BA000D34D621080B586B000AF786000233B61E2
:102BB0000023FB607B681B6803F00103002B7DD0C2
:102BC0000023FB754F4BDB6903F08053002B0DD1C5
:102BD0004C4BDB694B4A43F08053D361494BDB6973
:102BE00003F08053BB60BB680123FB75464B1B6839
:102BF00003F48073002B18D1434B1B68424A43F403
:102C000080731360FEF71AFE386108E0FEF716FEC7
:102C100002463B69D31A642B01D903236DE03A4B7A
:102C20001B6803F48073002BF0D0364B1B6A03F44F
:102C30004073FB60FB68002B2ED07B685B6803F45D
:102C40004073FA689A4227D02E4B1B6A23F44073D4
:102C5000FB602E4B01221A602C4B00221A60294A7D
:102C6000FB681362FB6803F00103002B14D0FEF72E
:102C7000E5FD38610AE0FEF7E1FD02463B69D31A43
:102C800041F28832934201D9032336E01D4B1B6A7F
:102C900003F00203002BEED01A4B1B6A23F44072A0
:102CA0007B685B68174913430B62FB7D012B05D1E1
:102CB000144BDB69134A23F08053D3617B681B6894
:102CC00003F00203002B08D00E4B5B6823F4404254
:102CD0007B689B680B4913434B607B681B6803F060
:102CE0001003002B08D0074B5B6823F480027B683D
:102CF000DB68044913434B60002318461837BD4670
:102D000080BD00BF001002400070004040044242FD
:102D1000014B1868704700BF0C00002070B50026FA
:102D20000C4D0D4C641BA410A64209D102F0FCFE10
:102D300000260A4D0A4C641BA410A64205D170BDA2
:102D400055F8043B98470136EEE755F8043B9847A1
:102D50000136F2E7645F0008645F0008645F000802
:102D6000685F000803460244934200D1704703F8AD
:102D7000011BF9E7002B2DE9F0471F46BBBF03F10C
:102D800000431F4600232D2388B01446129A109D3D
:102D90001370149BDDF84CA023F02008B8F1460F07
:102DA00005D0B8F1450F00D10135022300E003231F
:102DB00007AA049206AACDE902A2CDE9003522466F
:102DC0003B4600F0E5FCB8F1470F064602D1119BE7
:102DD000DB0722D5B8F1460F06EB050910D1337891
:102DE000302B0AD10022002320463946FDF7DCFDB6
:102DF00018B9C5F10105CAF80050DAF80030994455
:102E00000022002320463946FDF7CEFD08B1CDF85B
:102E10001C903022079B4B4507D33046079B159AE1
:102E20009B1B136008B0BDE8F087591C07911A700E
:102E3000F0E70346F7B5002903F8022BB6BF2D22B1
:102E40002B224942092942702BDD0DF10704A446CB
:102E50000A2791FBF7F60A46A64607FB1615632AD2
:102E600005F13005314604F1FF340EF8015CF0DC69
:102E70003031AEF1020504F8011C2946441C6145BD
:102E80000AD30DF10902A2EB0E02654588BF0022AC
:102E90001344181A03B0F0BD11F8012B04F8012FE8
:102EA000EDE7302330318370C170031DF1E700007E
:102EB0002DE9F04F91B00C46DDF8688016461F46AC
:102EC000054601F053FA036818460993FDF740F9E7
:102ED00000230E93D8F800300A90073323F007033D
:102EE00003F1080294F81890D4F800B0C8F8002054
:102EF000D3E90023C4E91223D4E9128A2AF000435B
:102F00000B934FF0FF3240469C4B0B99FDF77EFD33
:102F100070BB4FF0FF324046984B0B99FDF758FDC0
:102F200030BB0022002340465146FDF747FD10B15B
:102F30002D2384F84330924B9248B9F1470F94BF48
:102F40009846804603234FF0000A23612BF00403C8
:102F5000236033462146284600970FAA00F0D4F993
:102F6000013040F090804FF0FF3011B0BDE8F08F9D
:102F70004246534640465146FDF748FD48B1BAF136
:102F8000000FB8BF2D238048B8BF84F843307F4B73
:102F9000D3E7636809F0DF015A1C42D1062363605E
:102FA000002206920EAACDE904920DAA4BF480638A
:102FB00003920DF13302CDE901322360636842468A
:102FC0000093284653460B91FFF7D4FE0B99804699
:102FD00047290D9908D1C81C02DB6368994240DD7E
:102FE000A9F102095FFA89F9B9F1650F1FD84A46BC
:102FF000013904F150000D91FFF71BFF0E9A824634
:103000001318012A236102DC2268D20701D501339B
:1030100023619DF83330002B9BD02D2384F843305F
:1030200097E74729BCD1002BBAD10123B7E7B9F103
:10303000660F18D1002963680BDD216113B922687E
:10304000D00702D501330B4423614FF0000AA1657C
:10305000DFE713B92268D20701D50233F4E7012371
:10306000F2E74FF067090E9B994205DB2368216167
:10307000D807EAD54B1CE7E70029CCBF0122C1F1F4
:1030800002021344E0E723685A0507D42369424645
:1030900031462846B84701302BD164E7B9F1650FB6
:1030A00040F2DD80D4E9120100220023FDF77CFC10
:1030B000002833D0012331462846354AB84701302D
:1030C0003FF451AFDDE90D239A4202DB2368D807B4
:1030D0000FD5DDE9092331462846B84701303FF4D2
:1030E00042AF4FF0000804F11A090E9B013B434523
:1030F00009DC23689B0700F10281E0680F9B98427E
:10310000B8BF184631E701234A4631462846B8473A
:1031100001303FF428AF08F10108E6E70D9B002BD2
:1031200038DC012331462846194AB84701303FF4BC
:103130001AAFDDE90D23134302D12368D907D8D58F
:10314000DDE9092331462846B84701303FF40BAF8B
:103150004FF0000904F11A0A0D9B5B424B4501DC5C
:103160000E9B94E70123524631462846B84701306A
:103170003FF4F9AE09F10109EEE700BFFFFFEF7F71
:103180008C5B0008905B0008985B0008945B00086B
:103190009C5B00080E9AA36D9A42A8BF1A46002AAB
:1031A000914637DC4FF0000B29EAE97904F11A0265
:1031B000D4F858A0AAEB09035B4533DCDDE90D2305
:1031C0009A423BDB2368DA0738D40E9B0D99A3EBB8
:1031D0000A02A3EB01099145A8BF9146B9F1000F7E
:1031E00034DC4FF0000829EAE97904F11A0ADDE934
:1031F0000D239B1AA3EB090343457FF77AAF012305
:10320000524631462846B84701303FF4ACAE08F18B
:103210000108ECE71346314642462846B8470130DC
:10322000C0D1A0E60123314628460B92B8470130B1
:103230003FF499AE0B9A0BF1010BB9E73146DDE98A
:1032400009232846B8470130BFD18CE64B463146AA
:10325000284608EB0A02B8470130C2D183E60E9A2D
:10326000012A01DCDB0737D50123424631462846D7
:10327000B84701303FF477AEDDE9092331462846EF
:10328000B84701303FF46FAED4E9120100220023A9
:10329000FDF78AFBD8B90E9B08F10102013B3146CC
:1032A0002846B84701300ED15DE601234A46314633
:1032B0002846B84701303FF456AE08F101080E9B8E
:1032C000013B4345F1DC534604F15002E0E64FF088
:1032D000000804F11A09F2E701234246DFE701235F
:1032E0004A4631462846B84701303FF43CAE08F123
:1032F0000108E3680F995B1A4345F0DCFDE64FF0E7
:10330000000804F11909F4E72DE9F047164699463B
:103310008A680B6907469342B8BF1346336091F839
:1033200043200C46DDF820800AB101333360236866
:10333000990642BF336802333360256815F00605ED
:1033400006D104F1190AE36832689B1AAB4228DC03
:1033500094F84320131E226818BF012392062DD42F
:103360004946384604F14302C047013020D0236863
:10337000E56803F00603042B18BF002532684FF000
:103380000006A36808BFAD1A226908BF25EAE575E3
:103390009342C4BF9B1AED181A34B5421AD10020CB
:1033A00008E00123524649463846C047013003D160
:1033B0004FF0FF30BDE8F0870135C4E73020E11859
:1033C00081F843005A1C94F845102244023382F8D5
:1033D0004310C5E70123224649463846C04701301D
:1033E000E6D00136D9E700002DE9FF470F7E914670
:1033F000782F80460C469A460C9D01F1430207D86F
:10340000622F0AD8002F00F0D980582F00F0A48036
:1034100004F1420584F842703AE0A7F16303152BEA
:10342000F6D801A151F823F0813400089534000842
:103430001134000811340008113400081134000858
:1034400095340008113400081134000811340008C4
:1034500011340008A3350008C5340008853500087C
:103460001134000811340008C53500081134000873
:10347000C534000811340008113400088D350008E7
:103480002B681A1D1B682A6004F1420584F842303B
:103490000123A4E020682968060601F104030AD587
:1034A0000E682B60002E03DA2D23764284F8433019
:1034B0000A235E4819E00E6810F0400F2B6018BF19
:1034C00036B2EFE72B682068191D2960010601D587
:1034D0001E6802E04606FBD51E886F2F0CBF08232E
:1034E0000A235248002184F843106568002DA8BFC4
:1034F0002168A560A4BF21F0040121600EB9002D50
:103500004DD01546B6FBF3F103FB1167C75D05F817
:10351000017D3746BB420E46F4D9082B0BD12368F8
:10352000DE0708D5236961689942DEBF302305F8BC
:10353000013C05F1FF35521B22614B4621464046B6
:10354000CDF800A003AAFFF7DFFE01304CD14FF009
:10355000FF3004B0BDE8F087344881F84570296831
:10356000236851F8046B29601D0614D5DF0744BF9A
:1035700043F0200323601EB9236823F02003236057
:103580001023AFE7236843F0200323607823284803
:1035900084F84530E3E7590648BFB6B2E6E715467A
:1035A000BBE72B682668181D6169286035061B6813
:1035B00001D5196002E07006FBD51980002315467D
:1035C0002361BAE72B6800211A1D2A601D68626812
:1035D000284600F0D7FE08B1401B60606368236195
:1035E000002384F84330A8E72A4649464046236929
:1035F000D0470130ABD023689B0713D4E068039B0E
:103600009842B8BF1846A4E70123324649464046CF
:10361000D04701309BD00135E36803995B1AAB4278
:10362000F2DCEBE7002504F11906F5E79E5B0008E4
:10363000AF5B00080EB46FF0004100B59CB01DAB4D
:1036400002900690079104910848094953F8042B09
:103650000591006802A9019301F07EFB0022029B04
:103660001A701CB05DF804EB03B070470C0000202A
:103670000802FFFF2DE9F74F03690C690746A342D3
:10368000C0F28280013C00F1140501F1140805EB41
:103690008403019358F8243055F8242001339A42CA
:1036A000B2FBF3F64FEA840B08EB840931D34FF0F9
:1036B000000E4046AC46F24650F8042B93B206FB8F
:1036C00003E3120C4FEA134E9BB206FB02E2AAEB95
:1036D0000303DCF800A04FEA124E1FFA8AFA5344A3
:1036E000DCF800A092B2C2EB1A4202EB23429BB27A
:1036F00043EA024381454FEA224A4CF8043BDBD2BD
:1037000055F80B302BB9019B043B9D421A462FD331
:103710003C61384601F0D0F8002825DB28464FF000
:10372000000C013658F8041BD0F800E08BB2ACEB6B
:1037300003031FFA8EF213440A0CC2EB1E4202EB83
:1037400023429BB243EA0243C1454FEA224C40F870
:10375000043BE7D255F8242005EB840322B9043B4F
:103760009D421A460AD33C61304603B0BDE8F08F53
:103770001268043B002ACBD1013CC6E71268043B27
:10378000002AF0D1013CEBE70020EEE7000000004A
:103790002DE9F04F16461F46446A99B00546CDE91B
:1037A0000467DDF8948074B9102000F0E3FD024650
:1037B000686220B9EA21A84BA84801F0DDFBC0E906
:1037C00001440460C4606B6A196851B15A680123EE
:1037D00093404A608B60284600F030FE00226B6AFE
:1037E0001A603B1EAFBF0023012223F00043059364
:1037F000A8BFC8F80030DDF81490994BB8BFC8F8DE
:10380000002033EA090319D142F20F73249A13609E
:10381000C9F31303334300F07F85269B53B9914BC3
:1038200022E0914B03930833269A1360039819B052
:10383000BDE8F08F8B4B03930333F5E7DDE90434E8
:10384000CDE90C34DDE90C0100220023FDF7ACF8D2
:10385000804658B10123249A1360269B002B00F068
:10386000588582481860431E0393DFE716AB019327
:1038700017AB00932846DDE90C2301F0C5F8C9F326
:103880000A548346002C7FD0DDE90C010D9BA4F285
:10389000FF34C3F3130343F07F5141F44011CDF8DB
:1038A0004C800022724BFCF75FFC65A3D3E9002338
:1038B000FCF712FE64A3D3E90023FCF757FC06468D
:1038C00020460F46FCF79EFD61A3D3E90023FCF7D9
:1038D00003FE02460B4630463946FCF747FC0646D7
:1038E0000F46FDF7A9F800228246002330463946EC
:1038F000FDF764F848B15046FCF784FD32463B467C
:10390000FDF752F808B90AF1FF3ABAF1160F58D884
:10391000DDE90C01574B03EBCA03D3E90023FDF7A4
:103920004DF800284FD000230AF1FF3A0F93169B61
:103930001C1B631E099349BFC4F1010300230693B6
:10394000002354BF06930993BAF1000F3DDB099B96
:10395000CDF838A05344099300230A93229B092BE6
:1039600000F28C80052BC4BF043B2293229BC8BF6E
:103970000024A3F10203D8BF0124032B00F28A80A4
:10398000DFE803F02D4F4D5BDDE916431C4404F2E4
:103990003243202BC3BFC3F1400304F2124009FAA3
:1039A00003F3C3F12003C6BF26FA00F0184306FA5A
:1039B00003F0FCF717FD0123A1F1F871013C13930B
:1039C0006FE70123B2E70F90B1E7069BA3EB0A0371
:1039D0000693CAF100030A9300230E93BEE7002367
:1039E0000B93239B002B58DC4FF001094B46CDF87D
:1039F0002090CDF88C900022686A4260042202F187
:103A000014069E4241684ED9284600F0D7FC039028
:103A100000284CD102464FF4D571174BCCE6012358
:103A2000DEE700230B93239B0AEB030909F1010353
:103A3000012B0893B8BF0123DDE70123F2E700BFA4
:103A400061436F63A787D23FB3C8608B288AC63FA4
:103A5000FB799F501344D33FCD5B0008E45B000823
:103A60000000F07FC95B0008C05B00089D5B000898
:103A70000000F83FD85C00083F5C000801240023E8
:103A80000B9422934FF0FF3900221223CDF820909F
:103A90002392B0E701230B93F4E7DDF88C904B46BB
:103AA000CDF82090A7E7013141605200A7E76B6A8B
:103AB000039A1A60089B0E2B00F2A880002C00F0DD
:103AC000A580BAF1000F34DD9A4A0AF00F0302EB29
:103AD000C3031AF4807FD3E90034CDE910344FEAF0
:103AE0002A1416D0DDE90C01934B0327D3E90823F0
:103AF000FCF71CFECDE9040104F00F048E4E54B90E
:103B0000DDE91023DDE90401FCF710FECDE9040135
:103B100029E00227F2E7E10708D5DDE91001D6E93F
:103B20000023FCF7D9FCCDE91001013764100836F9
:103B3000E5E700F0A580DDE90C01CAF100047D4B4A
:103B400004F00F0203EBC203D3E90023FCF7C4FC2B
:103B500002270023CDE90401774E2411002C40F008
:103B60008480002BD2D10F9B002B00F08B80DDE9ED
:103B70000434CDE91034DDE9100100226F4BFCF76D
:103B80001DFF00287ED0089B002B7BD0B9F1000FD1
:103B900038DDDDE910010022694BFCF79DFC4C4645
:103BA000CDE904010AF1FF3801373846FCF72AFC59
:103BB000DDE90423FCF790FC0022624BFCF7D6FA07
:103BC000A1F15076CDE910011196002C5DD1DDE90F
:103BD000040100225C4BFCF7C7FA02460B46CDE914
:103BE00004233346109AFCF707FF002840F09C821C
:103BF000DDE90401109A06F10043FCF7DFFE00281E
:103C000040F09082DDE90C34CDE90434179B002BA1
:103C1000C0F25281BAF10E0F00F34E81454B03EB17
:103C2000CA03D3E90034CDE90634239B002B80F28C
:103C3000DB80089B002B00F3D78040F07282DDE927
:103C400006010022404BFCF747FCDDE90423FCF7AA
:103C5000C9FE089C2646002840F048823123039F75
:103C60000AF1010A07F8013B44E2E20705D5D6E96B
:103C70000023FCF731FC01230137641008366DE79F
:103C8000022770E7D046089C8FE70399294B21440F
:103C900012910B9903EBC403DDE9106753E902238A
:103CA000002955D000202949FCF740FD3B4632460B
:103CB000FCF75AFACDE91001039FDDE90401FCF796
:103CC000BBFE0446FCF79EFB02460B46DDE9040101
:103CD000FCF74AFA02460B463034CDE90423DDE90D
:103CE000102307F8014BFCF769FE002874D1DDE9C9
:103CF000042300201149FCF737FADDE91023FCF713
:103D00005DFE002840F0B780129B9F423FF47AAFDF
:103D1000DDE9100100220A4BFCF7DEFB0022CDE9B1
:103D20001001DDE90401064BFCF7D6FBCDE90401E7
:103D3000C3E700BFD85C0008B05C00080000F03F9B
:103D40000000244000001C40000014400000E03F40
:103D500030463946FCF7C0FB129BCDE91001039CAD
:103D60001493DDE90401FCF767FE1590FCF74AFBAC
:103D700002460B46DDE90401FCF7F6F9159B064601
:103D8000303304F8013B129B0F469C424FF0000277
:103D900024D1DDE91001B04BFCF7E8F902460B46EF
:103DA00030463946FCF728FE002863D1DDE91023B0
:103DB0000020A949FCF7D8F902460B46304639469F
:103DC000FCF7FCFD00283FF41DAF149F7B1E1493ED
:103DD00017F8013C302BF8D0C2463BE09F4BFCF774
:103DE0007BFBCDE90401BCE7039FDDE90489DDE944
:103DF000062340464946FCF799FCFCF71DFE0446A5
:103E0000FCF700FBDDE90623FCF766FB02460B46E8
:103E100040464946FCF7A8F904F1300607F8016B63
:103E2000039EDDF820C0BE1BB44502460B4636D1CA
:103E3000FCF79CF9DDE9062380468946FCF7DCFDAA
:103E400058BBDDE9062340464946FCF7ADFD08B105
:103E5000E10722D42846594600F0F0FA00233B70CF
:103E6000249B0AF101001860269B002B3FF4DEAC76
:103E70001F60DBE427463B461F4613F8012D392A15
:103E800007D1039A9A42F7D13022039908F1010829
:103E90000A701A7801321A709EE7D046EBE70022CA
:103EA0006E4BFCF719FB0022002380468946FCF785
:103EB0007BFD00289BD0CDE70B9A002A00F0D08034
:103EC000229A012A00F3AE80139A002A00F0A680FD
:103ED00003F233430A9C069F069A01211A44069274
:103EE000099A28461A44099200F05EFB0646002F04
:103EF0000CDD099B002B09DDBB42A8BF3B46069A9F
:103F0000FF1AD21A0692099AD31A09930A9BF3B19F
:103F10000B9B002B00F0A880002C10DD31462246C0
:103F2000284600F0FFFB5A4601460646284600F0A8
:103F300051FB80465946284600F080FAC3460A9B4A
:103F40001A1B04D05946284600F0ECFB8346012199
:103F5000284600F029FB0E9B0446002B40F3868088
:103F60001A460146284600F0DDFB229B0446012B41
:103F70007FDD4FF00008236904EB8303186900F02C
:103F8000C5FAC0F12000099B184410F01F0000F092
:103F90009280C0F12003042B40F38A80C0F11C0002
:103FA000069B074403440693099B03440993069B1D
:103FB000002B05DD59461A46284600F00DFC8346C5
:103FC000099B002B05DD21461A46284600F004FC1B
:103FD00004460F9B002B70D02146584600F06CFC25
:103FE00000286ADA002359460A22284600F048FAD7
:103FF0000B9B83460AF1FF3A002B00F09481314677
:1040000000230A22284600F03BFAB9F1000F0646C9
:1040100000F39380229B022B57DC8EE0169BC3F1AA
:10402000360357E7089B5C1E0A9BA342B7BF0A9B57
:104030001C1BE21A0E9BBEBF0A949B180E93089B92
:10404000B8BF0024002BBBBF069B089A069F9F1A8F
:10405000ACBF089B00233FE70000E03F0000244086
:104060000A9C069F0B9E42E70A9A6BE7229B012B54
:1040700019DC049BBBB9059BC3F313039BB9059BD8
:1040800023F000431B0D1B0583B14FF00108069B75
:1040900001330693099B013309930E9B002B7FF498
:1040A0006AAF01206FE74FF00008F6E79846F4E7A3
:1040B0003FF47DAF18461C3072E7089B002B36DCBE
:1040C000229B022B33DDDDF82090B9F1000F0DD1DA
:1040D00021464B460522284600F0D2F90146044607
:1040E000584600F0E9FB00283FF7B8AD239B039F3B
:1040F0006FEA030A4FF000082146284600F09EF9B7
:10410000002E3FF4A7AEB8F1000F05D0B04503D0A4
:104110004146284600F092F93146284600F08EF9D3
:1041200098E600242646E1E7C246264696E50B9B24
:10413000DDF82090002B00F0FD80002F05DD3146DA
:104140003A46284600F048FB0646B8F1000F5CD01E
:104150002846716800F032F9074628B9024640F255
:10416000EA217F4BFFF728BB326906F10C010232CE
:1041700092000C3000F014F901223946284600F074
:104180002BFBB0460646039B01330893039B4B442D
:104190000A93049B03F001030993089B2146013B0A
:1041A00058460493FFF766FA0346414630330690BB
:1041B00058460B9300F080FB324681462146284644
:1041C00000F096FBC26807460B9B02BB01465846AF
:1041D00000F072FB02460B9B39462846CDE90B32B4
:1041E00000F02CF9229B0C9A089F43EA0201099BDC
:1041F0000B430B9B0DD1392B29D0B9F1000F01DDF9
:10420000069B3133049A137076E73046B9E70122F2
:10421000E2E7B9F1000F06DB229941EA09090999A1
:1042200059EA010120D1002AECDD59460122284635
:10423000089300F0D1FA2146834600F03DFB0028A8
:10424000089B02DCDED1DA07DCD5392BD8D1392343
:10425000049A13703B461F4617F8012C013B392A7C
:1042600050D001321A7047E7002A03DD392BEED017
:104270000133C7E7089A0A9902F8013C8A422AD01A
:10428000594600230A22284600F0FAF8B045834632
:104290004FF000034FF00A024146284607D100F0D4
:1042A000EFF880460646089B0133089375E700F057
:1042B000E7F83146804600230A22284600F0E0F85D
:1042C0000646F0E7B9F1000FCCBF4F4601274FF08B
:1042D0000008039A1744594601222846089300F023
:1042E0007BFA2146834600F0E7FA0028B2DC02D1CF
:1042F000089BDB07AED43B461F4613F8012D302A3E
:10430000FAD0F9E6039A9A42A5D131230AF1010ABB
:1043100079E7144BFFF7A8BA269B002B7FF481AAFC
:10432000114BFFF7A1BAB9F1000F03DC229B022B5E
:104330003FF7CBAE039F21465846FFF79BF9039A00
:1043400000F1300307F8013BBA1A9145BADD59462E
:1043500000230A22284600F093F88346EBE700BFCB
:104360003F5C00089C5B0008C05B00080048704789
:1043700060010020024B0146186800F01DBC00BF20
:104380000C000020034610B5C9B2024493421846FF
:1043900001D1002003E0047801338C42F6D110BD36
:1043A0000A44914200F1FF3300D1704710B511F873
:1043B000014B914203F8014FF9D110BD70B5466A27
:1043C00004460D4676B91020FFF7D4FF024660621E
:1043D00020B96621174B184800F0CEFDC0E90166F0
:1043E0000660C660666AF36883B1636ADB6853F887
:1043F0002500B8B9012101FA05F6721D2046920088
:1044000000F05EFB60B1C0E901560EE021220421FC
:10441000204600F055FB636AF060DB68002BE4D1B6
:10442000002070BD026843F825200023C0E9033353
:10443000F7E700BFCD5B0008505C000870B5466A26
:1044400005460C4676B91020FFF794FF02466862D5
:1044500020B98A21084B094800F08EFDC0E90166A9
:104460000660C6603CB16B6A6268DB6853F8221074
:10447000216043F8224070BDCD5B0008505C00080D
:104480002DE9F04107460C461E4600200D6901F15A
:10449000140CDCF80030013099B202FB01611E0CF3
:1044A0000B0C02FB063389B201EB034185424FEA54
:1044B00013464CF8041BECDC0EB3A368AB4219DCCA
:1044C000616838460131FFF779FF804628B9024616
:1044D000B5210C4B0C4800F04FFD226904F10C0192
:1044E000023292000C30FFF75BFF21463846FFF79F
:1044F000A5FF444604EB850301355E612561204636
:10450000BDE8F0813F5C0008505C0008020C12041A
:104510000346CAB90304102013F07F4F04BF1B02E7
:10452000083013F0704F04BF1B01043013F0404FEC
:1045300004BF9B000230002B05DB13F0804F00F11D
:10454000010008BF202070470020E5E7036802460D
:1045500013F007000BD0D90721D4980749BF5B0897
:104560009B08012013605CBF02201360704799B262
:1045700009B910201B0CD9B209B908301B0A190758
:1045800004BF1B090430990704BF9B080230D907F8
:1045900003D45B0800F1010003D0136070470020D2
:1045A000704720207047000010B50C460121FFF72E
:1045B00005FF024628B94FF4A071044B044800F0EF
:1045C000DBFC01234461036110BD00BF3F5C0008B8
:1045D000505C00082DE9F04F91460A69D9F8103077
:1045E0000C469A42BEBF0B464C4699462769D9F8FD
:1045F00010A0A368616807EB0A06B34285B0B8BF94
:104600000131FFF7DBFE30B9024640F25D11434B4A
:10461000434800F0B1FC00F114052B46002205EBE5
:104620008608434521D304F1140303EB870709F1FE
:10463000140303EB8A0202923A1B153A22F003029A
:10464000043204F115018F4238BF04220192029A0C
:1046500003939A420CD8002E03DD58F8043D002B3A
:1046600059D0066105B0BDE8F08F43F8042BD8E7B8
:10467000B3F800A0BAF1000F23D0A9464FF0000C08
:1046800004F1140E5EF8042BD9F800101FFA82FB17
:1046900089B20AFB0B116144D9F800C0120C4FEA31
:1046A0001C4C0AFB02C202EB114289B241EA0241F0
:1046B00077454FEA124C49F8041BE3D8019A45F8B4
:1046C00002C0039A0433B2F80290B9F1000F20D06F
:1046D000AE464FF0000A296804F1140CBCF800B093
:1046E000BEF8022089B209FB0B22924441EA0A413A
:1046F0004EF8041B5CF8042BBEF80010120C09FBEA
:104700000211674501EB1A414FEA114AE6D8019AB6
:10471000A95004359BE7013E9DE700BF3F5C0008C0
:10472000505C00082DE9F843154612F003020646D6
:104730000F4607D0254C013A002354F82220FFF7FA
:104740009FFE0746AD103DD0746A7CB91020FFF77C
:1047500011FE0246706228B94FF4D7711C4B1D48F8
:1047600000F00AFCC0E901440460C460D6F824806B
:10477000D8F808404CB940F271213046FFF714FFD9
:1047800000230446C8F8080003604FF00009EB0757
:104790000AD5394622463046FFF71CFF8046394687
:1047A0003046FFF74BFE47466D100BD0206838B9F6
:1047B000224621463046FFF70DFF2060C0F80090EA
:1047C0000446E4E73846BDE8F88300BFA05D000872
:1047D000CD5B0008505C00082DE9F0470C46074609
:1047E00091462369496803EB6218A3684FEA621A8D
:1047F00008F10106B3420BDB3846FFF7DFFD054643
:1048000048B9024640F2D911294B2A4800F0B4FBBE
:1048100001315B00EEE7002300F1140100F110020A
:104820001846534537DB20692AEAEA7A04F1140373
:1048300019F01F0901EB8A0103EB80002FD08A4693
:104840004FF0000CC9F1200E1A6802FA09F242EA90
:104850000C024AF8042B53F8042B984222FA0EFC5F
:10486000F2D8031B153B23F00303043304F11502B4
:10487000904238BF042341F803C0BCF1000F01D0BF
:1048800008F10206013E384621462E61FFF7D6FDAB
:104890002846BDE8F08742F8040F0133C1E7043928
:1048A00053F8042B984241F8042FF9D8EAE700BFE7
:1048B0003F5C0008505C000803460A69006930B597
:1048C000801A0DD11433143103EB820401EB820101
:1048D00054F8045D51F8042D954202D004D3012010
:1048E00030BDA342F4D3FBE74FF0FF30F8E7000000
:1048F0002DE9F84F0D460746114628461446FFF7A6
:10490000DBFF061E11D131463846FFF757FD024640
:1049100028B940F232213A4B3A4800F02DFB0123EE
:10492000C0E904361046BDE8F88FA4BF23462C46E4
:1049300038466168A6BF1D4600260126FFF73EFDEA
:10494000024618B94FF410712D4BE5E702F1140837
:10495000C2464FF0000C2769C6602E6904F11400AE
:1049600005F1140900EB870E09EB8606103454F8A4
:1049700004BF59F8043B1FFA8BF18C4499B21B0C0D
:10498000ACEB0101C3EB1B4303EB214389B24FEABC
:10499000234C4E4541EA03434AF8043BE7D8731BD6
:1049A000153B23F0030315350433AE4238BF04230F
:1049B000184443441E46054675450ED30EF10301C7
:1049C000091A21F003010338864538BF0021194434
:1049D00051F8043D8BB11761A4E755F8048B1FFA19
:1049E00088F161440C1404EB184489B241EA044193
:1049F0004FEA244C46F8041BDEE7013FE8E700BF1E
:104A00003F5C0008505C00082DE9F3410121DDE91D
:104A1000087690461D46FFF7D1FC044630B90246A1
:104A200040F20A31244B254800F0A6FAC5F31303DF
:104A3000C5F30A552DBB0193B8F1000326D0684693
:104A40000093FFF783FD0099F0B1019AC0F12003B4
:104A500002FA03F30B43C24063610192019B002BF6
:104A600014BF02210121A3612161C5B1A5F2334523
:104A70000544C0F135003D603060204602B0BDE81D
:104A8000F08143F48013D6E76161E7E701A8FFF7FF
:104A90005DFD0121019B216163612030E5E704EBAD
:104AA0008103A0F2324038601869FFF72FFDC0EB98
:104AB00041113160E1E700BF3F5C0008505C000835
:104AC00070B5A1FB025434B9294600F075F80646CA
:104AD00028B9304670BD0C2200260260F9E72A464C
:104AE0002146FEF73FF9F4E738B50546002940D0E6
:104AF00051F8043C0C1F002BB8BFE41800F098FAE2
:104B00001C4A136833B9636014602846BDE8384016
:104B100000F094BAA34208D9206821188B4201BF43
:104B200019685B6809182160EDE71A465B680BB1EC
:104B3000A342FAD911685018A0420BD12068014451
:104B4000501883421160E0D118685B68014411601D
:104B50005360DAE702D90C232B60D6E720682118CE
:104B60008B4201BF19685B6809182160636054605B
:104B7000CBE738BD3402002070B50E4E0C463168CC
:104B8000054611B900F0E8F930602146284600F0EA
:104B9000E3F9431C0AD0C41C24F00304A04207D04C
:104BA000211A284600F0D8F9013001D14FF0FF3426
:104BB000204670BD380200202DE9F041CD1C25F0C3
:104BC000030508350C2D38BF0C25002D074601DBE9
:104BD000A94205D90C2300263B603046BDE8F08190
:104BE0002E4E00F025FA33681C4634BB2946384661
:104BF000FFF7C2FF431C04464DD134682646002E01
:104C000040D123683146384604EB030800F0A4F98C
:104C100080453AD1216803356D1A25F00305083522
:104C20000C2D38BF0C2538462946FFF7A5FF01306B
:104C30002BD023682B4423600EE02268521B1ED425
:104C40000B2A16D96119A342256018BF5960636801
:104C500008BF316062514B60384604F10B0600F02A
:104C6000EDF926F00706231DF21AB6D09B1BA350C0
:104C7000B3E76268A3420CBF32605A60ECE7234698
:104C80006468B2E734467668B9E70C2338463B607F
:104C900000F0D4F9A1E72560DEE700BF3402002070
:104CA0002DE9F0478E6882469E420C4690461F468C
:104CB00038D88A8912F4906F32D025680969013397
:104CC000A5EB010965694B4405EB450505EBD57579
:104CD0006D109D4238BF1D46530531D52946FFF75B
:104CE0006BFF064650B90C234FF0FF30CAF8003076
:104CF000A38943F04003A381BDE8F0874A462169B8
:104D0000FFF74EFBA38923F4906343F08003A38154
:104D100026614E4426603E466561A5EB0905A56007
:104D2000BE4200D93E4632464146206800F066F950
:104D3000A36800209B1BA360236833442360DBE748
:104D40002A4600F081F906460028E1D15046216943
:104D5000FFF7CAFEC7E700002DE9F04F98468B89A0
:104D600007461B060D4614469DB00ED50B6963B968
:104D70004021FFF721FF2860286120B90C233B6008
:104D80004FF0FF30D1E040236B61002309932023D3
:104D90008DF8293030234FF00109CDF80C80DFF871
:104DA000A4818DF82A3023469A4613F8012B0AB1C4
:104DB000252AF9D1BAEB040B0BD05B4622462946D3
:104DC0003846FFF76DFF013000F0AA80099A5A4477
:104DD00009929AF80030002B00F0A28000234FF0D7
:104DE000FF32CDE905230AF1010A049307938DF8F8
:104DF00053301A935446052214F8011B5148FFF70B
:104E0000C1FA049AD8B9D00644BF20238DF8533094
:104E1000110744BF2B238DF853309AF800302A2B0A
:104E200015D0544600204FF00A0C079A214611F87D
:104E3000013B303B092B4ED9B0B1079214E0A0EBF7
:104E4000080309FA03F31343A2460493D2E7039B32
:104E5000191D1B680391002BBBBF5B4242F002028D
:104E600007930793B8BF049223782E2B0CD1637855
:104E70002A2B35D1039B02341A1D1B680392002B89
:104E8000B8BF4FF0FF330593DFF8BCA003225046B4
:104E90002178FFF777FA40B14023A0EB0A0003FA2C
:104EA00000F0049B01340343049314F8011B062211
:104EB00026488DF82810FFF765FA002838D0244BD3
:104EC0001BBB039B073323F0070308330393099BA2
:104ED0003344099367E70C4601200CFB0232A5E737
:104EE00000234FF00A0C194601340593204610F8B0
:104EF000012B303A092A03D9002BC5D00591C3E70D
:104F0000044601230CFB0121F0E703AB00932A4682
:104F10003846104B04A9FDF7CBFF421C0646D6D1FC
:104F2000AB895B063FF52CAF09981DB0BDE8F08F4B
:104F300003AB00932A463846064B04A9FEF754FA01
:104F4000EBE700BFAC5D0008B25D0008B65D00088D
:104F5000B12E0008A14C000838B50023054D0446C9
:104F600008462B60FCF7B0FB431C02D12B6803B151
:104F7000236038BD3C0200201FB514461A46094B79
:104F800005461B68D8684CB1074BCDE90134009148
:104F90002B46064900F00EF800F0AAFA044B1C4616
:104FA000F3E700BF0C000020BD5D0008CA5D0008EB
:104FB000F85D00080EB403B5014603AB054853F88D
:104FC000042B0068019300F095F802B05DF804EB43
:104FD00003B070470C00002082B001B901A942B1B2
:104FE0004BB113780B601278101E18BF012002B06D
:104FF00070471046FBE76FF00100F8E7884210B5F4
:1050000001EB020402D98442234607D8431EA14281
:1050100008D011F8012B03F8012FF8E701460244EC
:105020008A4200D110BD13F8014D02F8014DF7E797
:10503000014800F019BC00BF40020020014800F008
:1050400014BC00BF400200202DE9F0418046144608
:105050000E4621B91146BDE8F041FFF7ADBD2AB9B2
:10506000FFF742FD25462846BDE8F08100F064FCCC
:105070008442074602D8B4EB500F12D8214640466E
:10508000FFF79AFD05460028EDD0BC422246314686
:1050900028BF3A46FFF784F931464046FFF724FD22
:1050A000E1E73546DFE7936810B4013B002B9360DE
:1050B00007DA9469A34201DB0A2902D110BC00F08F
:1050C00049B91368581C10601970084610BC704725
:1050D000F8B506460F461446D518AC4201D100205B
:1050E00007E03A46304614F8011BFFF7DCFF431C8B
:1050F000F3D1F8BD2DE9F04F0D461446984606460B
:105100009DB018B183690BB900F010FB894B9D422B
:105110001BD175686B6ED90705D4AB899A0502D48B
:10512000A86D00F0A1FBAB891B0701D52B69EBB97A
:105130002946304600F06EF9C0B16B6EDC070ED523
:105140004FF0FF301DB0BDE8F08F7B4B9D4201D189
:10515000B568DFE7794B9D4208BFF568DAE7AB89B0
:105160009805EDD4A86D00F080FBE9E700230993D2
:1051700020238DF8293030234FF00109CDF80C8021
:10518000DFF8BC818DF82A3023469A4613F8012BAC
:105190000AB1252AF9D1BAEB040B0BD05B462246A3
:1051A00029463046FFF794FF013000F0AA80099AA3
:1051B0005A4409929AF80030002B00F0A280002394
:1051C0004FF0FF32CDE905230AF1010A049307935A
:1051D0008DF853301A935446052214F8011B584891
:1051E000FFF7D0F8049AD8B9D10644BF20238DF830
:1051F0005330130744BF2B238DF853309AF80030F7
:105200002A2B15D0544600204FF00A0C079A21464D
:1052100011F8013B303B092B4ED9B0B1079214E095
:10522000A0EB080309FA03F31343A2460493D2E761
:10523000039B191D1B680391002BBBBF5B4242F00F
:10524000020207930793B8BF049223782E2B0CD148
:1052500063782A2B35D1039B02341A1D1B680392F5
:10526000002BB8BF4FF0FF330593DFF8D8A003221F
:1052700050462178FFF786F840B14023A0EB0A00A2
:1052800003FA00F0049B01340343049314F8011B58
:1052900006222D488DF82810FFF774F800283FD01B
:1052A0002A4B1BBB039B073323F0070308330393ED
:1052B000099B3B44099367E70C4601200CFB023233
:1052C000A5E700234FF00A0C194601340593204648
:1052D00010F8012B303A092A03D9002BC5D00591CB
:1052E000C3E7044601230CFB0121F0E703AB009365
:1052F0002A463046164B04A9FDF7DAFD0746781C0E
:10530000D6D16B6ED90705D4AB899A0502D4A86DA6
:1053100000F0ABFAAB895B063FF512AF099811E7D5
:1053200003AB00932A463046094B04A9FEF75CF80C
:10533000E4E700BF245F0008445F0008045F000842
:10534000AC5D0008B25D0008B65D0008B12E000833
:10535000D1500008F8B50E461446054618B18369C9
:105360000BB900F0E3F9214B9C422BD16C68A36987
:10537000A360A3891A072FD523696BB3236920681B
:10538000F6B2C01A63693746834204DC21462846D8
:1053900000F038F930BBA3680130013BA3602368FB
:1053A0005A1C22601E706369834204D0A389DB0704
:1053B00006D50A2E04D12146284600F023F988B9E3
:1053C0003846F8BD0A4B9C4201D1AC68CFE7094B87
:1053D0009C4208BFEC68CAE72146284600F01AF84C
:1053E0000028CBD04FF0FF37EAE700BF245F00086A
:1053F000445F0008045F00080346084641B1FF2AE5
:1054000004D98A224FF0FF301A60704701200A70D9
:1054100070470000324B70B51D6806460C4625B13A
:10542000AB6913B9284600F081F92E4B9C420FD18D
:105430006C68A389B4F90C2019072CD4DD0611D4AB
:105440000923336042F040034FF0FF30A3813EE078
:10545000254B9C4201D1AC68EBE7244B9C4208BF32
:10546000EC68E6E7580712D5616B41B104F14403DB
:10547000994202D03046FFF737FB00236363A389CC
:1054800023F02403A3810023636023692360A3899D
:1054900043F00803A38123694BB9A38903F4207364
:1054A000B3F5007F03D02146304600F005FAA0890D
:1054B000B4F90C2010F001030AD00023A360636943
:1054C0005B42A361236943B910F08000BAD170BD7B
:1054D000810758BF6369A360F4E70020F7E700BFC6
:1054E0000C000020245F0008445F0008045F0008EF
:1054F000062008B500F050FA0120FCF771F8000012
:105500008A89F8B5054610070C4657D44B68002B1E
:1055100004DC0B6C002B01DC0020F8BDE66A002ED9
:10552000FAD0002312F480522F682B6032D0606DC5
:10553000A3895A0705D56368C01A636B0BB1236C46
:10554000C01A00230246E66A2846216AB047431C77
:10555000A38906D129681D292CD8294ACA40D60713
:1055600028D5002262602269D904226004D5421C39
:1055700001D12B6803B96065616B2F600029CBD026
:1055800004F14403994202D02846FFF7ADFA002007
:105590006063C2E7216A01232846B047411CC7D196
:1055A0002B68002BC4D01D2B01D0162B01D12F60EE
:1055B000B2E7A38943F04003A381AEE70F69002F50
:1055C000AAD0930718BF00230E6808BF4B69F61BCB
:1055D0000F608B60002E9FDD33463A462846216AD5
:1055E000D4F828C0E047002806DCA3894FF0FF303C
:1055F00043F04003A38190E70744361AEAE700BF6F
:105600000100402038B50B6905460C4613B900254A
:10561000284638BD18B183690BB900F087F8144BE0
:105620009C421BD16C68B4F90C30002BEFD0626E39
:10563000D00704D4990502D4A06D00F015F92846CE
:105640002146FFF75DFF636E0546DA07E0D4A389C4
:105650009B05DDD4A06D00F008F9D9E7054B9C420D
:1056600001D1AC68DFE7044B9C4208BFEC68DAE785
:10567000245F0008445F0008045F0008002310B5A1
:105680000446C0E90033C0E9043383608181436686
:10569000C2818361194608225C30FDF763FB054B2C
:1056A00024626362044BA362044BE362044B2363F2
:1056B00010BD00BFD1590008F35900082B5A00084B
:1056C0004F5A0008014900F0AFB800BF0556000866
:1056D000682270B54D1E55430E4605F17401FFF763
:1056E0006BFA044640B10021C0E900160C30A060FE
:1056F00005F16802FDF736FB204670BD014800F059
:10570000B3B800BF41020020014800F0AEB800BFAE
:1057100041020020014800F0A7B800BF420200206B
:10572000014800F0A2B800BF4202002010B50446B4
:10573000FFF7F0FFA3691BB1BDE81040FFF7F0BF12
:10574000C4E912332365134B134A1B68A262A342B8
:1057500008BF0123204608BFA36100F01FF8606066
:10576000204600F01BF8A060204600F017F8002249
:105770000421E0606068FFF781FF01220921A06831
:10578000FFF77CFF02221221E068FFF777FF012379
:10579000A361D1E7885B0008C5560008F8B5074645
:1057A000FFF7ACFF1E4B1E68B36913B93046FFF715
:1057B000BDFF4836D6E90134013B03D533680BB34E
:1057C0003668F7E7B4F90C50D5B9164B04F1580018
:1057D000E360656600F047F8FFF796FF0822294668
:1057E000C4E90155C4E904552560A56104F15C00D4
:1057F000FDF7B8FAC4E90D55C4E912552046F8BDC5
:105800006834D9E704213846FFF762FF0446306068
:105810000028D5D1FFF778FF0C233B60EEE700BFEF
:10582000885B00080100FFFF2DE9F8430646884623
:10583000002700F14804D4E90195B9F1010905D523
:105840002468002CF7D13846BDE8F883AB89012BDA
:1058500007D9B5F90E30013303D029463046C04789
:1058600007436835E9E770477047704770B50E46E3
:10587000B1F90E10144600291D4696B008DA002230
:10588000B6F90C302A601A0610D44FF480630EE08B
:105890006A4600F003F90028F1DB019A02F4704235
:1058A000A2F500535A425A412A60EEE740230020F5
:1058B000236016B070BD00008B8973B59D07064646
:1058C0000C4607D504F1470323602361012363617C
:1058D00002B070BD6A4601ABFFF7C8FF00990546EC
:1058E0003046FFF769F948B9B4F90C309A05EFD49E
:1058F00023F0030343F00203A381E3E70D4BB362FC
:10590000A389206043F08003A381009B2061636131
:10591000019B5BB13046B4F90E1000F0D1F828B10C
:10592000A38923F0030343F00103A381A089054366
:10593000A581CDE7C556000851F8043C181F002B7F
:10594000BCBF0B58C01870471F2938B504460D4618
:1059500004D9162303604FF0FF3038BD426C12B1FA
:1059600052F821304BB9204600F030F82A46014663
:105970002046BDE8384000F017B8012B0AD0591C6A
:1059800003D1162303600120E7E70024284642F8EC
:10599000254098470020E0E7024B01461868FFF7D2
:1059A000D3BF00BF0C00002038B50023064D0446CD
:1059B000084611462B60FBF703FE431C02D12B68FF
:1059C00003B1236038BD00BF3C020020FBF7F1BDEE
:1059D00010B50C46B1F90E1000F094F80028ABBFDA
:1059E000636DA3891B1823F48053ACBF6365A38147
:1059F00010BD2DE9F0411F468B890546DB050C469D
:105A0000164605D502230022B1F90E1000F068F801
:105A1000A389324623F48053A38128463B46B4F938
:105A20000E10BDE8F04100F017B810B50C46B1F902
:105A30000E1000F055F8431CA38915BF606523F4D0
:105A4000805343F48053A38118BFA38110BDB1F9E3
:105A50000E1000F013B8000038B504460846114691
:105A60000022054D2A601A46FBF7E1FD431C02D1D6
:105A70002B6803B1236038BD3C02002038B50023F9
:105A8000054D044608462B60FBF7EDFD431C02D193
:105A90002B6803B1236038BD3C02002038B50023D9
:105AA000064D0446084611462B60FBF7E7FD431CF4
:105AB00002D12B6803B1236038BD00BF3C02002037
:105AC00038B50023054D044608462B60FBF7E5FD7D
:105AD000431C02D12B6803B1236038BD3C02002077
